{
	"data": {
		"bytecode": {
			"linkReferences": {},
			"object": "608060405234801561001057600080fd5b50604051610a7e380380610a7e83398101604081905261002f91610074565b60028290556001849055600060035561004883426100c1565b600055600580546001600160a01b0319166001600160a01b0392909216919091179055506100e5915050565b60008060008060808587031215610089578384fd5b845160208601516040870151606088015192965090945092506001600160a01b03811681146100b6578182fd5b939692955090935050565b600082198211156100e057634e487b7160e01b81526011600452602481fd5b500190565b61098a806100f46000396000f3fe6080604052600436106101145760003560e01c8063521b20ec116100a057806391f901571161006457806391f901571461027c578063baedb1b214610291578063d57bde79146102a6578063db2e1eed146102bc578063dbc945c0146102d257600080fd5b8063521b20ec146101f15780638643337414610229578063893d20e81461023e5780638ade75531461014c5780638da5cb5b1461025c57600080fd5b80632a24f46c116100e75780632a24f46c1461018c57806335af3b491461014c5780634979440a146101a25780634bb278f3146101b75780635130ac1f146101cc57600080fd5b806317d70f7c146101195780631998aeef14610142578063209784801461014c578063295fc76d1461016c575b600080fd5b34801561012557600080fd5b5061012f60015481565b6040519081526020015b60405180910390f35b61014a6102e8565b005b34801561015857600080fd5b5061014a6101673660046108c8565b6103f4565b34801561017857600080fd5b5061012f6101873660046108a5565b6104e3565b34801561019857600080fd5b5061012f60005481565b3480156101ae57600080fd5b5061012f61055e565b3480156101c357600080fd5b5061014a6105d1565b3480156101d857600080fd5b506101e16105f6565b6040519015158152602001610139565b3480156101fd57600080fd5b50600454610211906001600160a01b031681565b6040516001600160a01b039091168152602001610139565b34801561023557600080fd5b5061014a6106ab565b34801561024a57600080fd5b506005546001600160a01b0316610211565b34801561026857600080fd5b50600554610211906001600160a01b031681565b34801561028857600080fd5b506102116107ae565b34801561029d57600080fd5b5061012f610884565b3480156102b257600080fd5b5061012f60075481565b3480156102c857600080fd5b5061012f60025481565b3480156102de57600080fd5b5061012f60065481565b6000544211156103385760405162461bcd60e51b815260206004820152601660248201527520bab1ba34b7b71030b63932b0b23c9032b73232b21760511b60448201526064015b60405180910390fd5b600254341161039f5760405162461bcd60e51b815260206004820152602d60248201527f546865206269642076616c7565206973206c657373207468616e20746865207260448201526c32b9b2b93b3290383934b1b29760991b606482015260840161032f565b60006009600060035460016103b491906108f3565b8152602081019190915260400160002080546001600160a01b03191633178155346001808301919091556003549192506103ee91906108f3565b60035550565b6005546001600160a01b0316331461040b57600080fd5b6000544210156104565760405162461bcd60e51b815260206004820152601660248201527520bab1ba34b7b7103737ba103cb2ba1032b73232b21760511b604482015260640161032f565b60085460ff166104a85760405162461bcd60e51b815260206004820181905260248201527f41756374696f6e20656e6420686173206e6f74206265656e2063616c6c65642e604482015260640161032f565b6040516001600160a01b0383169082156108fc029083906000818181858888f193505050501580156104de573d6000803e3d6000fd5b505050565b6005546000906001600160a01b031633146104fd57600080fd5b60005b6003548111610555576000818152600960205260409020546001600160a01b03848116911614156105435760009081526009602052604090206001015492915050565b8061054d8161090b565b915050610500565b50600092915050565b6005546000906001600160a01b0316331461057857600080fd5b60085460ff166105ca5760405162461bcd60e51b815260206004820181905260248201527f41756374696f6e20656e6420686173206e6f74206265656e2063616c6c65642e604482015260640161032f565b5060075490565b6005546001600160a01b031633146105e857600080fd5b6005546001600160a01b0316ff5b6005546000906001600160a01b0316331461061057600080fd5b6000805b60035481116106a2576000818152600960205260409020600181015460045491549093506001600160a01b03918216911614610690576000818152600960205260408082205490516001600160a01b039091169184156108fc02918591818181858888f1935050505015801561068e573d6000803e3d6000fd5b505b8061069a8161090b565b915050610614565b50600191505090565b6005546001600160a01b031633146106c257600080fd5b60005442101561070d5760405162461bcd60e51b815260206004820152601660248201527520bab1ba34b7b7103737ba103cb2ba1032b73232b21760511b604482015260640161032f565b60085460ff161561076c5760405162461bcd60e51b815260206004820152602360248201527f61756374696f6e456e642068617320616c7265616479206265656e2063616c6c60448201526232b21760e91b606482015260840161032f565b6008805460ff191660011790556107816107ae565b600480546001600160a01b0319166001600160a01b039290921691821790556107a9906104e3565b600755565b6005546000906001600160a01b031633146107c857600080fd5b600080805260096020527fec8156718a8372b1db44bb411437d0870f3e3790d4a08526d024ce1b0b668f6c54600480546001600160a01b0319169055905b60035481116108715760008181526009602052604090206001015482101561085f57600081815260096020526040902060018101549054600480546001600160a01b0319166001600160a01b0390921691909117905591505b806108698161090b565b915050610806565b50506004546001600160a01b0316905090565b6005546000906001600160a01b0316331461089e57600080fd5b5060025490565b6000602082840312156108b6578081fd5b81356108c18161093c565b9392505050565b600080604083850312156108da578081fd5b82356108e58161093c565b946020939093013593505050565b6000821982111561090657610906610926565b500190565b600060001982141561091f5761091f610926565b5060010190565b634e487b7160e01b600052601160045260246000fd5b6001600160a01b038116811461095157600080fd5b5056fea2646970667358221220e83df23e57e0c9ec34b6d6ed081084da88f916b700f5f6ed35c9a970deb919a064736f6c63430008040033",
			"opcodes": "PUSH1 0x80 PUSH1 0x40 MSTORE CALLVALUE DUP1 ISZERO PUSH2 0x10 JUMPI PUSH1 0x0 DUP1 REVERT JUMPDEST POP PUSH1 0x40 MLOAD PUSH2 0xA7E CODESIZE SUB DUP1 PUSH2 0xA7E DUP4 CODECOPY DUP2 ADD PUSH1 0x40 DUP2 SWAP1 MSTORE PUSH2 0x2F SWAP2 PUSH2 0x74 JUMP JUMPDEST PUSH1 0x2 DUP3 SWAP1 SSTORE PUSH1 0x1 DUP5 SWAP1 SSTORE PUSH1 0x0 PUSH1 0x3 SSTORE PUSH2 0x48 DUP4 TIMESTAMP PUSH2 0xC1 JUMP JUMPDEST PUSH1 0x0 SSTORE PUSH1 0x5 DUP1 SLOAD PUSH1 0x1 PUSH1 0x1 PUSH1 0xA0 SHL SUB NOT AND PUSH1 0x1 PUSH1 0x1 PUSH1 0xA0 SHL SUB SWAP3 SWAP1 SWAP3 AND SWAP2 SWAP1 SWAP2 OR SWAP1 SSTORE POP PUSH2 0xE5 SWAP2 POP POP JUMP JUMPDEST PUSH1 0x0 DUP1 PUSH1 0x0 DUP1 PUSH1 0x80 DUP6 DUP8 SUB SLT ISZERO PUSH2 0x89 JUMPI DUP4 DUP5 REVERT JUMPDEST DUP5 MLOAD PUSH1 0x20 DUP7 ADD MLOAD PUSH1 0x40 DUP8 ADD MLOAD PUSH1 0x60 DUP9 ADD MLOAD SWAP3 SWAP7 POP SWAP1 SWAP5 POP SWAP3 POP PUSH1 0x1 PUSH1 0x1 PUSH1 0xA0 SHL SUB DUP2 AND DUP2 EQ PUSH2 0xB6 JUMPI DUP2 DUP3 REVERT JUMPDEST SWAP4 SWAP7 SWAP3 SWAP6 POP SWAP1 SWAP4 POP POP JUMP JUMPDEST PUSH1 0x0 DUP3 NOT DUP3 GT ISZERO PUSH2 0xE0 JUMPI PUSH4 0x4E487B71 PUSH1 0xE0 SHL DUP2 MSTORE PUSH1 0x11 PUSH1 0x4 MSTORE PUSH1 0x24 DUP2 REVERT JUMPDEST POP ADD SWAP1 JUMP JUMPDEST PUSH2 0x98A DUP1 PUSH2 0xF4 PUSH1 0x0 CODECOPY PUSH1 0x0 RETURN INVALID PUSH1 0x80 PUSH1 0x40 MSTORE PUSH1 0x4 CALLDATASIZE LT PUSH2 0x114 JUMPI PUSH1 0x0 CALLDATALOAD PUSH1 0xE0 SHR DUP1 PUSH4 0x521B20EC GT PUSH2 0xA0 JUMPI DUP1 PUSH4 0x91F90157 GT PUSH2 0x64 JUMPI DUP1 PUSH4 0x91F90157 EQ PUSH2 0x27C JUMPI DUP1 PUSH4 0xBAEDB1B2 EQ PUSH2 0x291 JUMPI DUP1 PUSH4 0xD57BDE79 EQ PUSH2 0x2A6 JUMPI DUP1 PUSH4 0xDB2E1EED EQ PUSH2 0x2BC JUMPI DUP1 PUSH4 0xDBC945C0 EQ PUSH2 0x2D2 JUMPI PUSH1 0x0 DUP1 REVERT JUMPDEST DUP1 PUSH4 0x521B20EC EQ PUSH2 0x1F1 JUMPI DUP1 PUSH4 0x86433374 EQ PUSH2 0x229 JUMPI DUP1 PUSH4 0x893D20E8 EQ PUSH2 0x23E JUMPI DUP1 PUSH4 0x8ADE7553 EQ PUSH2 0x14C JUMPI DUP1 PUSH4 0x8DA5CB5B EQ PUSH2 0x25C JUMPI PUSH1 0x0 DUP1 REVERT JUMPDEST DUP1 PUSH4 0x2A24F46C GT PUSH2 0xE7 JUMPI DUP1 PUSH4 0x2A24F46C EQ PUSH2 0x18C JUMPI DUP1 PUSH4 0x35AF3B49 EQ PUSH2 0x14C JUMPI DUP1 PUSH4 0x4979440A EQ PUSH2 0x1A2 JUMPI DUP1 PUSH4 0x4BB278F3 EQ PUSH2 0x1B7 JUMPI DUP1 PUSH4 0x5130AC1F EQ PUSH2 0x1CC JUMPI PUSH1 0x0 DUP1 REVERT JUMPDEST DUP1 PUSH4 0x17D70F7C EQ PUSH2 0x119 JUMPI DUP1 PUSH4 0x1998AEEF EQ PUSH2 0x142 JUMPI DUP1 PUSH4 0x20978480 EQ PUSH2 0x14C JUMPI DUP1 PUSH4 0x295FC76D EQ PUSH2 0x16C JUMPI JUMPDEST PUSH1 0x0 DUP1 REVERT JUMPDEST CALLVALUE DUP1 ISZERO PUSH2 0x125 JUMPI PUSH1 0x0 DUP1 REVERT JUMPDEST POP PUSH2 0x12F PUSH1 0x1 SLOAD DUP2 JUMP JUMPDEST PUSH1 0x40 MLOAD SWAP1 DUP2 MSTORE PUSH1 0x20 ADD JUMPDEST PUSH1 0x40 MLOAD DUP1 SWAP2 SUB SWAP1 RETURN JUMPDEST PUSH2 0x14A PUSH2 0x2E8 JUMP JUMPDEST STOP JUMPDEST CALLVALUE DUP1 ISZERO PUSH2 0x158 JUMPI PUSH1 0x0 DUP1 REVERT JUMPDEST POP PUSH2 0x14A PUSH2 0x167 CALLDATASIZE PUSH1 0x4 PUSH2 0x8C8 JUMP JUMPDEST PUSH2 0x3F4 JUMP JUMPDEST CALLVALUE DUP1 ISZERO PUSH2 0x178 JUMPI PUSH1 0x0 DUP1 REVERT JUMPDEST POP PUSH2 0x12F PUSH2 0x187 CALLDATASIZE PUSH1 0x4 PUSH2 0x8A5 JUMP JUMPDEST PUSH2 0x4E3 JUMP JUMPDEST CALLVALUE DUP1 ISZERO PUSH2 0x198 JUMPI PUSH1 0x0 DUP1 REVERT JUMPDEST POP PUSH2 0x12F PUSH1 0x0 SLOAD DUP2 JUMP JUMPDEST CALLVALUE DUP1 ISZERO PUSH2 0x1AE JUMPI PUSH1 0x0 DUP1 REVERT JUMPDEST POP PUSH2 0x12F PUSH2 0x55E JUMP JUMPDEST CALLVALUE DUP1 ISZERO PUSH2 0x1C3 JUMPI PUSH1 0x0 DUP1 REVERT JUMPDEST POP PUSH2 0x14A PUSH2 0x5D1 JUMP JUMPDEST CALLVALUE DUP1 ISZERO PUSH2 0x1D8 JUMPI PUSH1 0x0 DUP1 REVERT JUMPDEST POP PUSH2 0x1E1 PUSH2 0x5F6 JUMP JUMPDEST PUSH1 0x40 MLOAD SWAP1 ISZERO ISZERO DUP2 MSTORE PUSH1 0x20 ADD PUSH2 0x139 JUMP JUMPDEST CALLVALUE DUP1 ISZERO PUSH2 0x1FD JUMPI PUSH1 0x0 DUP1 REVERT JUMPDEST POP PUSH1 0x4 SLOAD PUSH2 0x211 SWAP1 PUSH1 0x1 PUSH1 0x1 PUSH1 0xA0 SHL SUB AND DUP2 JUMP JUMPDEST PUSH1 0x40 MLOAD PUSH1 0x1 PUSH1 0x1 PUSH1 0xA0 SHL SUB SWAP1 SWAP2 AND DUP2 MSTORE PUSH1 0x20 ADD PUSH2 0x139 JUMP JUMPDEST CALLVALUE DUP1 ISZERO PUSH2 0x235 JUMPI PUSH1 0x0 DUP1 REVERT JUMPDEST POP PUSH2 0x14A PUSH2 0x6AB JUMP JUMPDEST CALLVALUE DUP1 ISZERO PUSH2 0x24A JUMPI PUSH1 0x0 DUP1 REVERT JUMPDEST POP PUSH1 0x5 SLOAD PUSH1 0x1 PUSH1 0x1 PUSH1 0xA0 SHL SUB AND PUSH2 0x211 JUMP JUMPDEST CALLVALUE DUP1 ISZERO PUSH2 0x268 JUMPI PUSH1 0x0 DUP1 REVERT JUMPDEST POP PUSH1 0x5 SLOAD PUSH2 0x211 SWAP1 PUSH1 0x1 PUSH1 0x1 PUSH1 0xA0 SHL SUB AND DUP2 JUMP JUMPDEST CALLVALUE DUP1 ISZERO PUSH2 0x288 JUMPI PUSH1 0x0 DUP1 REVERT JUMPDEST POP PUSH2 0x211 PUSH2 0x7AE JUMP JUMPDEST CALLVALUE DUP1 ISZERO PUSH2 0x29D JUMPI PUSH1 0x0 DUP1 REVERT JUMPDEST POP PUSH2 0x12F PUSH2 0x884 JUMP JUMPDEST CALLVALUE DUP1 ISZERO PUSH2 0x2B2 JUMPI PUSH1 0x0 DUP1 REVERT JUMPDEST POP PUSH2 0x12F PUSH1 0x7 SLOAD DUP2 JUMP JUMPDEST CALLVALUE DUP1 ISZERO PUSH2 0x2C8 JUMPI PUSH1 0x0 DUP1 REVERT JUMPDEST POP PUSH2 0x12F PUSH1 0x2 SLOAD DUP2 JUMP JUMPDEST CALLVALUE DUP1 ISZERO PUSH2 0x2DE JUMPI PUSH1 0x0 DUP1 REVERT JUMPDEST POP PUSH2 0x12F PUSH1 0x6 SLOAD DUP2 JUMP JUMPDEST PUSH1 0x0 SLOAD TIMESTAMP GT ISZERO PUSH2 0x338 JUMPI PUSH1 0x40 MLOAD PUSH3 0x461BCD PUSH1 0xE5 SHL DUP2 MSTORE PUSH1 0x20 PUSH1 0x4 DUP3 ADD MSTORE PUSH1 0x16 PUSH1 0x24 DUP3 ADD MSTORE PUSH22 0x20BAB1BA34B7B71030B63932B0B23C9032B73232B217 PUSH1 0x51 SHL PUSH1 0x44 DUP3 ADD MSTORE PUSH1 0x64 ADD JUMPDEST PUSH1 0x40 MLOAD DUP1 SWAP2 SUB SWAP1 REVERT JUMPDEST PUSH1 0x2 SLOAD CALLVALUE GT PUSH2 0x39F JUMPI PUSH1 0x40 MLOAD PUSH3 0x461BCD PUSH1 0xE5 SHL DUP2 MSTORE PUSH1 0x20 PUSH1 0x4 DUP3 ADD MSTORE PUSH1 0x2D PUSH1 0x24 DUP3 ADD MSTORE PUSH32 0x546865206269642076616C7565206973206C657373207468616E207468652072 PUSH1 0x44 DUP3 ADD MSTORE PUSH13 0x32B9B2B93B3290383934B1B297 PUSH1 0x99 SHL PUSH1 0x64 DUP3 ADD MSTORE PUSH1 0x84 ADD PUSH2 0x32F JUMP JUMPDEST PUSH1 0x0 PUSH1 0x9 PUSH1 0x0 PUSH1 0x3 SLOAD PUSH1 0x1 PUSH2 0x3B4 SWAP2 SWAP1 PUSH2 0x8F3 JUMP JUMPDEST DUP2 MSTORE PUSH1 0x20 DUP2 ADD SWAP2 SWAP1 SWAP2 MSTORE PUSH1 0x40 ADD PUSH1 0x0 KECCAK256 DUP1 SLOAD PUSH1 0x1 PUSH1 0x1 PUSH1 0xA0 SHL SUB NOT AND CALLER OR DUP2 SSTORE CALLVALUE PUSH1 0x1 DUP1 DUP4 ADD SWAP2 SWAP1 SWAP2 SSTORE PUSH1 0x3 SLOAD SWAP2 SWAP3 POP PUSH2 0x3EE SWAP2 SWAP1 PUSH2 0x8F3 JUMP JUMPDEST PUSH1 0x3 SSTORE POP JUMP JUMPDEST PUSH1 0x5 SLOAD PUSH1 0x1 PUSH1 0x1 PUSH1 0xA0 SHL SUB AND CALLER EQ PUSH2 0x40B JUMPI PUSH1 0x0 DUP1 REVERT JUMPDEST PUSH1 0x0 SLOAD TIMESTAMP LT ISZERO PUSH2 0x456 JUMPI PUSH1 0x40 MLOAD PUSH3 0x461BCD PUSH1 0xE5 SHL DUP2 MSTORE PUSH1 0x20 PUSH1 0x4 DUP3 ADD MSTORE PUSH1 0x16 PUSH1 0x24 DUP3 ADD MSTORE PUSH22 0x20BAB1BA34B7B7103737BA103CB2BA1032B73232B217 PUSH1 0x51 SHL PUSH1 0x44 DUP3 ADD MSTORE PUSH1 0x64 ADD PUSH2 0x32F JUMP JUMPDEST PUSH1 0x8 SLOAD PUSH1 0xFF AND PUSH2 0x4A8 JUMPI PUSH1 0x40 MLOAD PUSH3 0x461BCD PUSH1 0xE5 SHL DUP2 MSTORE PUSH1 0x20 PUSH1 0x4 DUP3 ADD DUP2 SWAP1 MSTORE PUSH1 0x24 DUP3 ADD MSTORE PUSH32 0x41756374696F6E20656E6420686173206E6F74206265656E2063616C6C65642E PUSH1 0x44 DUP3 ADD MSTORE PUSH1 0x64 ADD PUSH2 0x32F JUMP JUMPDEST PUSH1 0x40 MLOAD PUSH1 0x1 PUSH1 0x1 PUSH1 0xA0 SHL SUB DUP4 AND SWAP1 DUP3 ISZERO PUSH2 0x8FC MUL SWAP1 DUP4 SWAP1 PUSH1 0x0 DUP2 DUP2 DUP2 DUP6 DUP9 DUP9 CALL SWAP4 POP POP POP POP ISZERO DUP1 ISZERO PUSH2 0x4DE JUMPI RETURNDATASIZE PUSH1 0x0 DUP1 RETURNDATACOPY RETURNDATASIZE PUSH1 0x0 REVERT JUMPDEST POP POP POP JUMP JUMPDEST PUSH1 0x5 SLOAD PUSH1 0x0 SWAP1 PUSH1 0x1 PUSH1 0x1 PUSH1 0xA0 SHL SUB AND CALLER EQ PUSH2 0x4FD JUMPI PUSH1 0x0 DUP1 REVERT JUMPDEST PUSH1 0x0 JUMPDEST PUSH1 0x3 SLOAD DUP2 GT PUSH2 0x555 JUMPI PUSH1 0x0 DUP2 DUP2 MSTORE PUSH1 0x9 PUSH1 0x20 MSTORE PUSH1 0x40 SWAP1 KECCAK256 SLOAD PUSH1 0x1 PUSH1 0x1 PUSH1 0xA0 SHL SUB DUP5 DUP2 AND SWAP2 AND EQ ISZERO PUSH2 0x543 JUMPI PUSH1 0x0 SWAP1 DUP2 MSTORE PUSH1 0x9 PUSH1 0x20 MSTORE PUSH1 0x40 SWAP1 KECCAK256 PUSH1 0x1 ADD SLOAD SWAP3 SWAP2 POP POP JUMP JUMPDEST DUP1 PUSH2 0x54D DUP2 PUSH2 0x90B JUMP JUMPDEST SWAP2 POP POP PUSH2 0x500 JUMP JUMPDEST POP PUSH1 0x0 SWAP3 SWAP2 POP POP JUMP JUMPDEST PUSH1 0x5 SLOAD PUSH1 0x0 SWAP1 PUSH1 0x1 PUSH1 0x1 PUSH1 0xA0 SHL SUB AND CALLER EQ PUSH2 0x578 JUMPI PUSH1 0x0 DUP1 REVERT JUMPDEST PUSH1 0x8 SLOAD PUSH1 0xFF AND PUSH2 0x5CA JUMPI PUSH1 0x40 MLOAD PUSH3 0x461BCD PUSH1 0xE5 SHL DUP2 MSTORE PUSH1 0x20 PUSH1 0x4 DUP3 ADD DUP2 SWAP1 MSTORE PUSH1 0x24 DUP3 ADD MSTORE PUSH32 0x41756374696F6E20656E6420686173206E6F74206265656E2063616C6C65642E PUSH1 0x44 DUP3 ADD MSTORE PUSH1 0x64 ADD PUSH2 0x32F JUMP JUMPDEST POP PUSH1 0x7 SLOAD SWAP1 JUMP JUMPDEST PUSH1 0x5 SLOAD PUSH1 0x1 PUSH1 0x1 PUSH1 0xA0 SHL SUB AND CALLER EQ PUSH2 0x5E8 JUMPI PUSH1 0x0 DUP1 REVERT JUMPDEST PUSH1 0x5 SLOAD PUSH1 0x1 PUSH1 0x1 PUSH1 0xA0 SHL SUB AND SELFDESTRUCT JUMPDEST PUSH1 0x5 SLOAD PUSH1 0x0 SWAP1 PUSH1 0x1 PUSH1 0x1 PUSH1 0xA0 SHL SUB AND CALLER EQ PUSH2 0x610 JUMPI PUSH1 0x0 DUP1 REVERT JUMPDEST PUSH1 0x0 DUP1 JUMPDEST PUSH1 0x3 SLOAD DUP2 GT PUSH2 0x6A2 JUMPI PUSH1 0x0 DUP2 DUP2 MSTORE PUSH1 0x9 PUSH1 0x20 MSTORE PUSH1 0x40 SWAP1 KECCAK256 PUSH1 0x1 DUP2 ADD SLOAD PUSH1 0x4 SLOAD SWAP2 SLOAD SWAP1 SWAP4 POP PUSH1 0x1 PUSH1 0x1 PUSH1 0xA0 SHL SUB SWAP2 DUP3 AND SWAP2 AND EQ PUSH2 0x690 JUMPI PUSH1 0x0 DUP2 DUP2 MSTORE PUSH1 0x9 PUSH1 0x20 MSTORE PUSH1 0x40 DUP1 DUP3 KECCAK256 SLOAD SWAP1 MLOAD PUSH1 0x1 PUSH1 0x1 PUSH1 0xA0 SHL SUB SWAP1 SWAP2 AND SWAP2 DUP5 ISZERO PUSH2 0x8FC MUL SWAP2 DUP6 SWAP2 DUP2 DUP2 DUP2 DUP6 DUP9 DUP9 CALL SWAP4 POP POP POP POP ISZERO DUP1 ISZERO PUSH2 0x68E JUMPI RETURNDATASIZE PUSH1 0x0 DUP1 RETURNDATACOPY RETURNDATASIZE PUSH1 0x0 REVERT JUMPDEST POP JUMPDEST DUP1 PUSH2 0x69A DUP2 PUSH2 0x90B JUMP JUMPDEST SWAP2 POP POP PUSH2 0x614 JUMP JUMPDEST POP PUSH1 0x1 SWAP2 POP POP SWAP1 JUMP JUMPDEST PUSH1 0x5 SLOAD PUSH1 0x1 PUSH1 0x1 PUSH1 0xA0 SHL SUB AND CALLER EQ PUSH2 0x6C2 JUMPI PUSH1 0x0 DUP1 REVERT JUMPDEST PUSH1 0x0 SLOAD TIMESTAMP LT ISZERO PUSH2 0x70D JUMPI PUSH1 0x40 MLOAD PUSH3 0x461BCD PUSH1 0xE5 SHL DUP2 MSTORE PUSH1 0x20 PUSH1 0x4 DUP3 ADD MSTORE PUSH1 0x16 PUSH1 0x24 DUP3 ADD MSTORE PUSH22 0x20BAB1BA34B7B7103737BA103CB2BA1032B73232B217 PUSH1 0x51 SHL PUSH1 0x44 DUP3 ADD MSTORE PUSH1 0x64 ADD PUSH2 0x32F JUMP JUMPDEST PUSH1 0x8 SLOAD PUSH1 0xFF AND ISZERO PUSH2 0x76C JUMPI PUSH1 0x40 MLOAD PUSH3 0x461BCD PUSH1 0xE5 SHL DUP2 MSTORE PUSH1 0x20 PUSH1 0x4 DUP3 ADD MSTORE PUSH1 0x23 PUSH1 0x24 DUP3 ADD MSTORE PUSH32 0x61756374696F6E456E642068617320616C7265616479206265656E2063616C6C PUSH1 0x44 DUP3 ADD MSTORE PUSH3 0x32B217 PUSH1 0xE9 SHL PUSH1 0x64 DUP3 ADD MSTORE PUSH1 0x84 ADD PUSH2 0x32F JUMP JUMPDEST PUSH1 0x8 DUP1 SLOAD PUSH1 0xFF NOT AND PUSH1 0x1 OR SWAP1 SSTORE PUSH2 0x781 PUSH2 0x7AE JUMP JUMPDEST PUSH1 0x4 DUP1 SLOAD PUSH1 0x1 PUSH1 0x1 PUSH1 0xA0 SHL SUB NOT AND PUSH1 0x1 PUSH1 0x1 PUSH1 0xA0 SHL SUB SWAP3 SWAP1 SWAP3 AND SWAP2 DUP3 OR SWAP1 SSTORE PUSH2 0x7A9 SWAP1 PUSH2 0x4E3 JUMP JUMPDEST PUSH1 0x7 SSTORE JUMP JUMPDEST PUSH1 0x5 SLOAD PUSH1 0x0 SWAP1 PUSH1 0x1 PUSH1 0x1 PUSH1 0xA0 SHL SUB AND CALLER EQ PUSH2 0x7C8 JUMPI PUSH1 0x0 DUP1 REVERT JUMPDEST PUSH1 0x0 DUP1 DUP1 MSTORE PUSH1 0x9 PUSH1 0x20 MSTORE PUSH32 0xEC8156718A8372B1DB44BB411437D0870F3E3790D4A08526D024CE1B0B668F6C SLOAD PUSH1 0x4 DUP1 SLOAD PUSH1 0x1 PUSH1 0x1 PUSH1 0xA0 SHL SUB NOT AND SWAP1 SSTORE SWAP1 JUMPDEST PUSH1 0x3 SLOAD DUP2 GT PUSH2 0x871 JUMPI PUSH1 0x0 DUP2 DUP2 MSTORE PUSH1 0x9 PUSH1 0x20 MSTORE PUSH1 0x40 SWAP1 KECCAK256 PUSH1 0x1 ADD SLOAD DUP3 LT ISZERO PUSH2 0x85F JUMPI PUSH1 0x0 DUP2 DUP2 MSTORE PUSH1 0x9 PUSH1 0x20 MSTORE PUSH1 0x40 SWAP1 KECCAK256 PUSH1 0x1 DUP2 ADD SLOAD SWAP1 SLOAD PUSH1 0x4 DUP1 SLOAD PUSH1 0x1 PUSH1 0x1 PUSH1 0xA0 SHL SUB NOT AND PUSH1 0x1 PUSH1 0x1 PUSH1 0xA0 SHL SUB SWAP1 SWAP3 AND SWAP2 SWAP1 SWAP2 OR SWAP1 SSTORE SWAP2 POP JUMPDEST DUP1 PUSH2 0x869 DUP2 PUSH2 0x90B JUMP JUMPDEST SWAP2 POP POP PUSH2 0x806 JUMP JUMPDEST POP POP PUSH1 0x4 SLOAD PUSH1 0x1 PUSH1 0x1 PUSH1 0xA0 SHL SUB AND SWAP1 POP SWAP1 JUMP JUMPDEST PUSH1 0x5 SLOAD PUSH1 0x0 SWAP1 PUSH1 0x1 PUSH1 0x1 PUSH1 0xA0 SHL SUB AND CALLER EQ PUSH2 0x89E JUMPI PUSH1 0x0 DUP1 REVERT JUMPDEST POP PUSH1 0x2 SLOAD SWAP1 JUMP JUMPDEST PUSH1 0x0 PUSH1 0x20 DUP3 DUP5 SUB SLT ISZERO PUSH2 0x8B6 JUMPI DUP1 DUP2 REVERT JUMPDEST DUP2 CALLDATALOAD PUSH2 0x8C1 DUP2 PUSH2 0x93C JUMP JUMPDEST SWAP4 SWAP3 POP POP POP JUMP JUMPDEST PUSH1 0x0 DUP1 PUSH1 0x40 DUP4 DUP6 SUB SLT ISZERO PUSH2 0x8DA JUMPI DUP1 DUP2 REVERT JUMPDEST DUP3 CALLDATALOAD PUSH2 0x8E5 DUP2 PUSH2 0x93C JUMP JUMPDEST SWAP5 PUSH1 0x20 SWAP4 SWAP1 SWAP4 ADD CALLDATALOAD SWAP4 POP POP POP JUMP JUMPDEST PUSH1 0x0 DUP3 NOT DUP3 GT ISZERO PUSH2 0x906 JUMPI PUSH2 0x906 PUSH2 0x926 JUMP JUMPDEST POP ADD SWAP1 JUMP JUMPDEST PUSH1 0x0 PUSH1 0x0 NOT DUP3 EQ ISZERO PUSH2 0x91F JUMPI PUSH2 0x91F PUSH2 0x926 JUMP JUMPDEST POP PUSH1 0x1 ADD SWAP1 JUMP JUMPDEST PUSH4 0x4E487B71 PUSH1 0xE0 SHL PUSH1 0x0 MSTORE PUSH1 0x11 PUSH1 0x4 MSTORE PUSH1 0x24 PUSH1 0x0 REVERT JUMPDEST PUSH1 0x1 PUSH1 0x1 PUSH1 0xA0 SHL SUB DUP2 AND DUP2 EQ PUSH2 0x951 JUMPI PUSH1 0x0 DUP1 REVERT JUMPDEST POP JUMP INVALID LOG2 PUSH5 0x6970667358 0x22 SLT KECCAK256 0xE8 RETURNDATASIZE CALLCODE RETURNDATACOPY JUMPI 0xE0 0xC9 0xEC CALLVALUE 0xB6 0xD6 0xED ADDMOD LT DUP5 0xDA DUP9 0xF9 AND 0xB7 STOP CREATE2 0xF6 0xED CALLDATALOAD 0xC9 0xA9 PUSH17 0xDEB919A064736F6C634300080400330000 "
		},
		"gasEstimates": {
			"creation": {
				"codeDepositCost": "488400",
				"executionCost": "infinite",
				"totalCost": "infinite"
			},
			"external": {
				"auctionEnd()": "1007",
				"auctionEnded()": "infinite",
				"bid()": "infinite",
				"charityAmount()": "1094",
				"disperseFunds()": "infinite",
				"finalize()": "31885",
				"geReservePrice()": "1888",
				"getHighestBid()": "2734",
				"getOwner()": "1101",
				"highestBid()": "1050",
				"highestBidAddress()": "1063",
				"highestBidAmount(address)": "infinite",
				"highestBidder()": "infinite",
				"owner()": "1151",
				"reservePrice()": "1072",
				"sendMoneyToOwner(address,uint256)": "infinite",
				"sendQLIPMoney(address,uint256)": "infinite",
				"sendRoyaltyMoney(address,uint256)": "infinite",
				"tokenId()": "1008"
			}
		},
		"methodIdentifiers": {
			"auctionEnd()": "2a24f46c",
			"auctionEnded()": "86433374",
			"bid()": "1998aeef",
			"charityAmount()": "dbc945c0",
			"disperseFunds()": "5130ac1f",
			"finalize()": "4bb278f3",
			"geReservePrice()": "baedb1b2",
			"getHighestBid()": "4979440a",
			"getOwner()": "893d20e8",
			"highestBid()": "d57bde79",
			"highestBidAddress()": "521b20ec",
			"highestBidAmount(address)": "295fc76d",
			"highestBidder()": "91f90157",
			"owner()": "8da5cb5b",
			"reservePrice()": "db2e1eed",
			"sendMoneyToOwner(address,uint256)": "35af3b49",
			"sendQLIPMoney(address,uint256)": "20978480",
			"sendRoyaltyMoney(address,uint256)": "8ade7553",
			"tokenId()": "17d70f7c"
		}
	},
	"abi": [
		{
			"inputs": [
				{
					"internalType": "uint256",
					"name": "_tokenId",
					"type": "uint256"
				},
				{
					"internalType": "uint256",
					"name": "_biddingTime",
					"type": "uint256"
				},
				{
					"internalType": "uint256",
					"name": "_reservePrice",
					"type": "uint256"
				},
				{
					"internalType": "address payable",
					"name": "_owner",
					"type": "address"
				}
			],
			"stateMutability": "nonpayable",
			"type": "constructor"
		},
		{
			"anonymous": false,
			"inputs": [
				{
					"indexed": false,
					"internalType": "address",
					"name": "winner",
					"type": "address"
				},
				{
					"indexed": false,
					"internalType": "uint256",
					"name": "amount",
					"type": "uint256"
				}
			],
			"name": "AuctionEnded",
			"type": "event"
		},
		{
			"inputs": [],
			"name": "auctionEnd",
			"outputs": [
				{
					"internalType": "uint256",
					"name": "",
					"type": "uint256"
				}
			],
			"stateMutability": "view",
			"type": "function"
		},
		{
			"inputs": [],
			"name": "auctionEnded",
			"outputs": [],
			"stateMutability": "nonpayable",
			"type": "function"
		},
		{
			"inputs": [],
			"name": "bid",
			"outputs": [],
			"stateMutability": "payable",
			"type": "function"
		},
		{
			"inputs": [],
			"name": "charityAmount",
			"outputs": [
				{
					"internalType": "uint256",
					"name": "",
					"type": "uint256"
				}
			],
			"stateMutability": "view",
			"type": "function"
		},
		{
			"inputs": [],
			"name": "disperseFunds",
			"outputs": [
				{
					"internalType": "bool",
					"name": "",
					"type": "bool"
				}
			],
			"stateMutability": "nonpayable",
			"type": "function"
		},
		{
			"inputs": [],
			"name": "finalize",
			"outputs": [],
			"stateMutability": "nonpayable",
			"type": "function"
		},
		{
			"inputs": [],
			"name": "geReservePrice",
			"outputs": [
				{
					"internalType": "uint256",
					"name": "",
					"type": "uint256"
				}
			],
			"stateMutability": "view",
			"type": "function"
		},
		{
			"inputs": [],
			"name": "getHighestBid",
			"outputs": [
				{
					"internalType": "uint256",
					"name": "",
					"type": "uint256"
				}
			],
			"stateMutability": "view",
			"type": "function"
		},
		{
			"inputs": [],
			"name": "getOwner",
			"outputs": [
				{
					"internalType": "address",
					"name": "",
					"type": "address"
				}
			],
			"stateMutability": "view",
			"type": "function"
		},
		{
			"inputs": [],
			"name": "highestBid",
			"outputs": [
				{
					"internalType": "uint256",
					"name": "",
					"type": "uint256"
				}
			],
			"stateMutability": "view",
			"type": "function"
		},
		{
			"inputs": [],
			"name": "highestBidAddress",
			"outputs": [
				{
					"internalType": "address",
					"name": "",
					"type": "address"
				}
			],
			"stateMutability": "view",
			"type": "function"
		},
		{
			"inputs": [
				{
					"internalType": "address",
					"name": "_highestBidder",
					"type": "address"
				}
			],
			"name": "highestBidAmount",
			"outputs": [
				{
					"internalType": "uint256",
					"name": "",
					"type": "uint256"
				}
			],
			"stateMutability": "view",
			"type": "function"
		},
		{
			"inputs": [],
			"name": "highestBidder",
			"outputs": [
				{
					"internalType": "address",
					"name": "",
					"type": "address"
				}
			],
			"stateMutability": "nonpayable",
			"type": "function"
		},
		{
			"inputs": [],
			"name": "owner",
			"outputs": [
				{
					"internalType": "address payable",
					"name": "",
					"type": "address"
				}
			],
			"stateMutability": "view",
			"type": "function"
		},
		{
			"inputs": [],
			"name": "reservePrice",
			"outputs": [
				{
					"internalType": "uint256",
					"name": "",
					"type": "uint256"
				}
			],
			"stateMutability": "view",
			"type": "function"
		},
		{
			"inputs": [
				{
					"internalType": "address payable",
					"name": "_nftOwner",
					"type": "address"
				},
				{
					"internalType": "uint256",
					"name": "salePrice",
					"type": "uint256"
				}
			],
			"name": "sendMoneyToOwner",
			"outputs": [],
			"stateMutability": "nonpayable",
			"type": "function"
		},
		{
			"inputs": [
				{
					"internalType": "address payable",
					"name": "_qlipAddress",
					"type": "address"
				},
				{
					"internalType": "uint256",
					"name": "_qlipAmount",
					"type": "uint256"
				}
			],
			"name": "sendQLIPMoney",
			"outputs": [],
			"stateMutability": "nonpayable",
			"type": "function"
		},
		{
			"inputs": [
				{
					"internalType": "address payable",
					"name": "_royalty",
					"type": "address"
				},
				{
					"internalType": "uint256",
					"name": "_royaltyAmount",
					"type": "uint256"
				}
			],
			"name": "sendRoyaltyMoney",
			"outputs": [],
			"stateMutability": "nonpayable",
			"type": "function"
		},
		{
			"inputs": [],
			"name": "tokenId",
			"outputs": [
				{
					"internalType": "uint256",
					"name": "",
					"type": "uint256"
				}
			],
			"stateMutability": "view",
			"type": "function"
		}
	]
}